{
  "contractName": "XManFactory",
  "abi": [
    {
      "inputs": [],
      "stateMutability": "nonpayable",
      "type": "constructor"
    },
    {
      "anonymous": false,
      "inputs": [
        {
          "indexed": true,
          "internalType": "address",
          "name": "owner",
          "type": "address"
        },
        {
          "indexed": true,
          "internalType": "address",
          "name": "spender",
          "type": "address"
        },
        {
          "indexed": false,
          "internalType": "uint256",
          "name": "value",
          "type": "uint256"
        }
      ],
      "name": "Approval",
      "type": "event"
    },
    {
      "anonymous": false,
      "inputs": [
        {
          "indexed": false,
          "internalType": "string",
          "name": "name",
          "type": "string"
        },
        {
          "indexed": false,
          "internalType": "uint256",
          "name": "dna",
          "type": "uint256"
        }
      ],
      "name": "NewXMan",
      "type": "event"
    },
    {
      "anonymous": false,
      "inputs": [
        {
          "indexed": true,
          "internalType": "address",
          "name": "oldOwner",
          "type": "address"
        },
        {
          "indexed": true,
          "internalType": "address",
          "name": "newOwner",
          "type": "address"
        }
      ],
      "name": "OwnerSet",
      "type": "event"
    },
    {
      "anonymous": false,
      "inputs": [
        {
          "indexed": true,
          "internalType": "address",
          "name": "from",
          "type": "address"
        },
        {
          "indexed": true,
          "internalType": "address",
          "name": "to",
          "type": "address"
        },
        {
          "indexed": false,
          "internalType": "uint256",
          "name": "value",
          "type": "uint256"
        }
      ],
      "name": "Transfer",
      "type": "event"
    },
    {
      "inputs": [],
      "name": "INITIAL_SUPPLY",
      "outputs": [
        {
          "internalType": "uint256",
          "name": "",
          "type": "uint256"
        }
      ],
      "stateMutability": "view",
      "type": "function"
    },
    {
      "inputs": [
        {
          "internalType": "address",
          "name": "owner",
          "type": "address"
        },
        {
          "internalType": "address",
          "name": "spender",
          "type": "address"
        }
      ],
      "name": "allowance",
      "outputs": [
        {
          "internalType": "uint256",
          "name": "",
          "type": "uint256"
        }
      ],
      "stateMutability": "view",
      "type": "function"
    },
    {
      "inputs": [
        {
          "internalType": "address",
          "name": "spender",
          "type": "address"
        },
        {
          "internalType": "uint256",
          "name": "amount",
          "type": "uint256"
        }
      ],
      "name": "approve",
      "outputs": [
        {
          "internalType": "bool",
          "name": "",
          "type": "bool"
        }
      ],
      "stateMutability": "nonpayable",
      "type": "function"
    },
    {
      "inputs": [
        {
          "internalType": "address",
          "name": "account",
          "type": "address"
        }
      ],
      "name": "balanceOf",
      "outputs": [
        {
          "internalType": "uint256",
          "name": "",
          "type": "uint256"
        }
      ],
      "stateMutability": "view",
      "type": "function"
    },
    {
      "inputs": [],
      "name": "decimals",
      "outputs": [
        {
          "internalType": "uint8",
          "name": "",
          "type": "uint8"
        }
      ],
      "stateMutability": "view",
      "type": "function"
    },
    {
      "inputs": [
        {
          "internalType": "address",
          "name": "spender",
          "type": "address"
        },
        {
          "internalType": "uint256",
          "name": "subtractedValue",
          "type": "uint256"
        }
      ],
      "name": "decreaseAllowance",
      "outputs": [
        {
          "internalType": "bool",
          "name": "",
          "type": "bool"
        }
      ],
      "stateMutability": "nonpayable",
      "type": "function"
    },
    {
      "inputs": [
        {
          "internalType": "address",
          "name": "spender",
          "type": "address"
        },
        {
          "internalType": "uint256",
          "name": "addedValue",
          "type": "uint256"
        }
      ],
      "name": "increaseAllowance",
      "outputs": [
        {
          "internalType": "bool",
          "name": "",
          "type": "bool"
        }
      ],
      "stateMutability": "nonpayable",
      "type": "function"
    },
    {
      "inputs": [],
      "name": "name",
      "outputs": [
        {
          "internalType": "string",
          "name": "",
          "type": "string"
        }
      ],
      "stateMutability": "view",
      "type": "function"
    },
    {
      "inputs": [],
      "name": "symbol",
      "outputs": [
        {
          "internalType": "string",
          "name": "",
          "type": "string"
        }
      ],
      "stateMutability": "view",
      "type": "function"
    },
    {
      "inputs": [],
      "name": "totalSupply",
      "outputs": [
        {
          "internalType": "uint256",
          "name": "",
          "type": "uint256"
        }
      ],
      "stateMutability": "view",
      "type": "function"
    },
    {
      "inputs": [
        {
          "internalType": "address",
          "name": "recipient",
          "type": "address"
        },
        {
          "internalType": "uint256",
          "name": "amount",
          "type": "uint256"
        }
      ],
      "name": "transfer",
      "outputs": [
        {
          "internalType": "bool",
          "name": "",
          "type": "bool"
        }
      ],
      "stateMutability": "nonpayable",
      "type": "function"
    },
    {
      "inputs": [
        {
          "internalType": "address",
          "name": "sender",
          "type": "address"
        },
        {
          "internalType": "address",
          "name": "recipient",
          "type": "address"
        },
        {
          "internalType": "uint256",
          "name": "amount",
          "type": "uint256"
        }
      ],
      "name": "transferFrom",
      "outputs": [
        {
          "internalType": "bool",
          "name": "",
          "type": "bool"
        }
      ],
      "stateMutability": "nonpayable",
      "type": "function"
    },
    {
      "inputs": [
        {
          "internalType": "address",
          "name": "",
          "type": "address"
        },
        {
          "internalType": "uint256",
          "name": "",
          "type": "uint256"
        }
      ],
      "name": "xMenToOwner",
      "outputs": [
        {
          "internalType": "string",
          "name": "name",
          "type": "string"
        },
        {
          "internalType": "uint256",
          "name": "dna",
          "type": "uint256"
        }
      ],
      "stateMutability": "view",
      "type": "function"
    },
    {
      "inputs": [
        {
          "internalType": "uint256",
          "name": "",
          "type": "uint256"
        }
      ],
      "name": "xmen",
      "outputs": [
        {
          "internalType": "string",
          "name": "name",
          "type": "string"
        },
        {
          "internalType": "uint256",
          "name": "dna",
          "type": "uint256"
        }
      ],
      "stateMutability": "view",
      "type": "function"
    },
    {
      "inputs": [
        {
          "internalType": "address",
          "name": "newOwner",
          "type": "address"
        }
      ],
      "name": "changeOwner",
      "outputs": [],
      "stateMutability": "nonpayable",
      "type": "function"
    },
    {
      "inputs": [],
      "name": "getOwner",
      "outputs": [
        {
          "internalType": "address",
          "name": "",
          "type": "address"
        }
      ],
      "stateMutability": "view",
      "type": "function"
    },
    {
      "inputs": [],
      "name": "getNumberOfXmen",
      "outputs": [
        {
          "internalType": "uint256",
          "name": "",
          "type": "uint256"
        }
      ],
      "stateMutability": "view",
      "type": "function"
    },
    {
      "inputs": [
        {
          "internalType": "uint256",
          "name": "index",
          "type": "uint256"
        }
      ],
      "name": "returnXman",
      "outputs": [
        {
          "internalType": "string",
          "name": "",
          "type": "string"
        },
        {
          "internalType": "uint256",
          "name": "",
          "type": "uint256"
        }
      ],
      "stateMutability": "view",
      "type": "function"
    },
    {
      "inputs": [
        {
          "internalType": "string",
          "name": "_name",
          "type": "string"
        },
        {
          "internalType": "uint256",
          "name": "amount",
          "type": "uint256"
        }
      ],
      "name": "createRandomXMan",
      "outputs": [],
      "stateMutability": "payable",
      "type": "function"
    }
  ],
  "bytecode": "0x6080604052630280de806005556010600655600654600a62000022919062000554565b60075560646008553480156200003757600080fd5b506040518060400160405280600781526020017f495a546f6b656e000000000000000000000000000000000000000000000000008152506040518060400160405280600381526020017f495a5400000000000000000000000000000000000000000000000000000000008152508160039080519060200190620000bc92919062000349565b508060049080519060200190620000d592919062000349565b505050620000e8620001c160201b60201c565b50620000fd33600554620001c660201b60201c565b33600960006101000a81548173ffffffffffffffffffffffffffffffffffffffff021916908373ffffffffffffffffffffffffffffffffffffffff160217905550600960009054906101000a900473ffffffffffffffffffffffffffffffffffffffff1673ffffffffffffffffffffffffffffffffffffffff16600073ffffffffffffffffffffffffffffffffffffffff167f342827c97908e5e2f71151c08502a66d44b6f758e3ac2f1de95f02eb95f0a73560405160405180910390a36200073c565b600090565b600073ffffffffffffffffffffffffffffffffffffffff168273ffffffffffffffffffffffffffffffffffffffff16141562000239576040517f08c379a000000000000000000000000000000000000000000000000000000000815260040162000230906200044c565b60405180910390fd5b6200024d600083836200033f60201b60201c565b80600260008282546200026191906200049c565b92505081905550806000808473ffffffffffffffffffffffffffffffffffffffff1673ffffffffffffffffffffffffffffffffffffffff1681526020019081526020016000206000828254620002b891906200049c565b925050819055508173ffffffffffffffffffffffffffffffffffffffff16600073ffffffffffffffffffffffffffffffffffffffff167fddf252ad1be2c89b69c2b068fc378daa952ba7f163c4a11628f55a4df523b3ef836040516200031f91906200046e565b60405180910390a36200033b600083836200034460201b60201c565b5050565b505050565b505050565b82805462000357906200069b565b90600052602060002090601f0160209004810192826200037b5760008555620003c7565b82601f106200039657805160ff1916838001178555620003c7565b82800160010185558215620003c7579182015b82811115620003c6578251825591602001919060010190620003a9565b5b509050620003d69190620003da565b5090565b5b80821115620003f5576000816000905550600101620003db565b5090565b600062000408601f836200048b565b91507f45524332303a206d696e7420746f20746865207a65726f2061646472657373006000830152602082019050919050565b620004468162000691565b82525050565b600060208201905081810360008301526200046781620003f9565b9050919050565b60006020820190506200048560008301846200043b565b92915050565b600082825260208201905092915050565b6000620004a98262000691565b9150620004b68362000691565b9250827fffffffffffffffffffffffffffffffffffffffffffffffffffffffffffffffff03821115620004ee57620004ed620006d1565b5b828201905092915050565b6000808291508390505b60018511156200054b57808604811115620005235762000522620006d1565b5b6001851615620005335780820291505b808102905062000543856200072f565b945062000503565b94509492505050565b6000620005618262000691565b91506200056e8362000691565b92506200059d7fffffffffffffffffffffffffffffffffffffffffffffffffffffffffffffffff8484620005a5565b905092915050565b600082620005b757600190506200068a565b81620005c757600090506200068a565b8160018114620005e05760028114620005eb5762000621565b60019150506200068a565b60ff8411156200060057620005ff620006d1565b5b8360020a9150848211156200061a5762000619620006d1565b5b506200068a565b5060208310610133831016604e8410600b84101617156200065b5782820a905083811115620006555762000654620006d1565b5b6200068a565b6200066a8484846001620004f9565b92509050818404811115620006845762000683620006d1565b5b81810290505b9392505050565b6000819050919050565b60006002820490506001821680620006b457607f821691505b60208210811415620006cb57620006ca62000700565b5b50919050565b7f4e487b7100000000000000000000000000000000000000000000000000000000600052601160045260246000fd5b7f4e487b7100000000000000000000000000000000000000000000000000000000600052602260045260246000fd5b60008160011c9050919050565b61202e806200074c6000396000f3fe6080604052600436106101145760003560e01c80634c6563f4116100a0578063a6f9dae111610064578063a6f9dae1146103d1578063a9059cbb146103fa578063aaff3c0814610437578063d4ec1fda14610475578063dd62ed3e146104b357610114565b80634c6563f4146102e557806370a0823114610301578063893d20e81461033e57806395d89b4114610369578063a457c2d71461039457610114565b80632e8ded17116100e75780632e8ded17146101e95780632ff2e9dc14610227578063313ce56714610252578063395093511461027d5780633ccde06f146102ba57610114565b806306fdde0314610119578063095ea7b31461014457806318160ddd1461018157806323b872dd146101ac575b600080fd5b34801561012557600080fd5b5061012e6104f0565b60405161013b9190611b7d565b60405180910390f35b34801561015057600080fd5b5061016b60048036038101906101669190611661565b610582565b6040516101789190611b62565b60405180910390f35b34801561018d57600080fd5b506101966105a0565b6040516101a39190611cef565b60405180910390f35b3480156101b857600080fd5b506101d360048036038101906101ce9190611612565b6105aa565b6040516101e09190611b62565b60405180910390f35b3480156101f557600080fd5b50610210600480360381019061020b91906116f1565b6106a2565b60405161021e929190611b9f565b60405180910390f35b34801561023357600080fd5b5061023c61075e565b6040516102499190611cef565b60405180910390f35b34801561025e57600080fd5b50610267610764565b6040516102749190611d0a565b60405180910390f35b34801561028957600080fd5b506102a4600480360381019061029f9190611661565b610769565b6040516102b19190611b62565b60405180910390f35b3480156102c657600080fd5b506102cf610815565b6040516102dc9190611cef565b60405180910390f35b6102ff60048036038101906102fa919061169d565b610864565b005b34801561030d57600080fd5b50610328600480360381019061032391906115ad565b6108f2565b6040516103359190611cef565b60405180910390f35b34801561034a57600080fd5b5061035361093a565b6040516103609190611b47565b60405180910390f35b34801561037557600080fd5b5061037e610964565b60405161038b9190611b7d565b60405180910390f35b3480156103a057600080fd5b506103bb60048036038101906103b69190611661565b6109f6565b6040516103c89190611b62565b60405180910390f35b3480156103dd57600080fd5b506103f860048036038101906103f391906115ad565b610ae1565b005b34801561040657600080fd5b50610421600480360381019061041c9190611661565b610c31565b60405161042e9190611b62565b60405180910390f35b34801561044357600080fd5b5061045e60048036038101906104599190611661565b610c4f565b60405161046c929190611b9f565b60405180910390f35b34801561048157600080fd5b5061049c600480360381019061049791906116f1565b610d18565b6040516104aa929190611b9f565b60405180910390f35b3480156104bf57600080fd5b506104da60048036038101906104d591906115d6565b610e65565b6040516104e79190611cef565b60405180910390f35b6060600380546104ff90611e9a565b80601f016020809104026020016040519081016040528092919081815260200182805461052b90611e9a565b80156105785780601f1061054d57610100808354040283529160200191610578565b820191906000526020600020905b81548152906001019060200180831161055b57829003601f168201915b5050505050905090565b600061059661058f610eec565b8484610ef4565b6001905092915050565b6000600254905090565b60006105b78484846110bf565b6000600160008673ffffffffffffffffffffffffffffffffffffffff1673ffffffffffffffffffffffffffffffffffffffff1681526020019081526020016000206000610602610eec565b73ffffffffffffffffffffffffffffffffffffffff1673ffffffffffffffffffffffffffffffffffffffff16815260200190815260200160002054905082811015610682576040517f08c379a000000000000000000000000000000000000000000000000000000000815260040161067990611c6f565b60405180910390fd5b6106968561068e610eec565b858403610ef4565b60019150509392505050565b600a81815481106106b257600080fd5b90600052602060002090600202016000915090508060000180546106d590611e9a565b80601f016020809104026020016040519081016040528092919081815260200182805461070190611e9a565b801561074e5780601f106107235761010080835404028352916020019161074e565b820191906000526020600020905b81548152906001019060200180831161073157829003601f168201915b5050505050908060010154905082565b60055481565b600090565b600061080b610776610eec565b848460016000610784610eec565b73ffffffffffffffffffffffffffffffffffffffff1673ffffffffffffffffffffffffffffffffffffffff16815260200190815260200160002060008873ffffffffffffffffffffffffffffffffffffffff1673ffffffffffffffffffffffffffffffffffffffff168152602001908152602001600020546108069190611dad565b610ef4565b6001905092915050565b600080600b60003373ffffffffffffffffffffffffffffffffffffffff1673ffffffffffffffffffffffffffffffffffffffff1681526020019081526020016000209050808054905091505090565b6008548110156108a9576040517f08c379a00000000000000000000000000000000000000000000000000000000081526004016108a090611c4f565b60405180910390fd5b6108d5600960009054906101000a900473ffffffffffffffffffffffffffffffffffffffff1682610c31565b5060006108e183611340565b90506108ed8382611385565b505050565b60008060008373ffffffffffffffffffffffffffffffffffffffff1673ffffffffffffffffffffffffffffffffffffffff168152602001908152602001600020549050919050565b6000600960009054906101000a900473ffffffffffffffffffffffffffffffffffffffff16905090565b60606004805461097390611e9a565b80601f016020809104026020016040519081016040528092919081815260200182805461099f90611e9a565b80156109ec5780601f106109c1576101008083540402835291602001916109ec565b820191906000526020600020905b8154815290600101906020018083116109cf57829003601f168201915b5050505050905090565b60008060016000610a05610eec565b73ffffffffffffffffffffffffffffffffffffffff1673ffffffffffffffffffffffffffffffffffffffff16815260200190815260200160002060008573ffffffffffffffffffffffffffffffffffffffff1673ffffffffffffffffffffffffffffffffffffffff16815260200190815260200160002054905082811015610ac2576040517f08c379a0000000000000000000000000000000000000000000000000000000008152600401610ab990611ccf565b60405180910390fd5b610ad6610acd610eec565b85858403610ef4565b600191505092915050565b600960009054906101000a900473ffffffffffffffffffffffffffffffffffffffff1673ffffffffffffffffffffffffffffffffffffffff163373ffffffffffffffffffffffffffffffffffffffff1614610b71576040517f08c379a0000000000000000000000000000000000000000000000000000000008152600401610b6890611c0f565b60405180910390fd5b80600960006101000a81548173ffffffffffffffffffffffffffffffffffffffff021916908373ffffffffffffffffffffffffffffffffffffffff1602179055508073ffffffffffffffffffffffffffffffffffffffff16600960009054906101000a900473ffffffffffffffffffffffffffffffffffffffff1673ffffffffffffffffffffffffffffffffffffffff167f342827c97908e5e2f71151c08502a66d44b6f758e3ac2f1de95f02eb95f0a73560405160405180910390a350565b6000610c45610c3e610eec565b84846110bf565b6001905092915050565b600b6020528160005260406000208181548110610c6b57600080fd5b906000526020600020906002020160009150915050806000018054610c8f90611e9a565b80601f0160208091040260200160405190810160405280929190818152602001828054610cbb90611e9a565b8015610d085780601f10610cdd57610100808354040283529160200191610d08565b820191906000526020600020905b815481529060010190602001808311610ceb57829003601f168201915b5050505050908060010154905082565b6060600080600b60003373ffffffffffffffffffffffffffffffffffffffff1673ffffffffffffffffffffffffffffffffffffffff16815260200190815260200160002090506000818581548110610d99577f4e487b7100000000000000000000000000000000000000000000000000000000600052603260045260246000fd5b9060005260206000209060020201604051806040016040529081600082018054610dc290611e9a565b80601f0160208091040260200160405190810160405280929190818152602001828054610dee90611e9a565b8015610e3b5780601f10610e1057610100808354040283529160200191610e3b565b820191906000526020600020905b815481529060010190602001808311610e1e57829003601f168201915b50505050508152602001600182015481525050905080600001518160200151935093505050915091565b6000600160008473ffffffffffffffffffffffffffffffffffffffff1673ffffffffffffffffffffffffffffffffffffffff16815260200190815260200160002060008373ffffffffffffffffffffffffffffffffffffffff1673ffffffffffffffffffffffffffffffffffffffff16815260200190815260200160002054905092915050565b600033905090565b600073ffffffffffffffffffffffffffffffffffffffff168373ffffffffffffffffffffffffffffffffffffffff161415610f64576040517f08c379a0000000000000000000000000000000000000000000000000000000008152600401610f5b90611caf565b60405180910390fd5b600073ffffffffffffffffffffffffffffffffffffffff168273ffffffffffffffffffffffffffffffffffffffff161415610fd4576040517f08c379a0000000000000000000000000000000000000000000000000000000008152600401610fcb90611bef565b60405180910390fd5b80600160008573ffffffffffffffffffffffffffffffffffffffff1673ffffffffffffffffffffffffffffffffffffffff16815260200190815260200160002060008473ffffffffffffffffffffffffffffffffffffffff1673ffffffffffffffffffffffffffffffffffffffff168152602001908152602001600020819055508173ffffffffffffffffffffffffffffffffffffffff168373ffffffffffffffffffffffffffffffffffffffff167f8c5be1e5ebec7d5bd14f71427d1e84f3dd0314c0f7b2291e5b200ac8c7c3b925836040516110b29190611cef565b60405180910390a3505050565b600073ffffffffffffffffffffffffffffffffffffffff168373ffffffffffffffffffffffffffffffffffffffff16141561112f576040517f08c379a000000000000000000000000000000000000000000000000000000000815260040161112690611c8f565b60405180910390fd5b600073ffffffffffffffffffffffffffffffffffffffff168273ffffffffffffffffffffffffffffffffffffffff16141561119f576040517f08c379a000000000000000000000000000000000000000000000000000000000815260040161119690611bcf565b60405180910390fd5b6111aa83838361146e565b60008060008573ffffffffffffffffffffffffffffffffffffffff1673ffffffffffffffffffffffffffffffffffffffff16815260200190815260200160002054905081811015611230576040517f08c379a000000000000000000000000000000000000000000000000000000000815260040161122790611c2f565b60405180910390fd5b8181036000808673ffffffffffffffffffffffffffffffffffffffff1673ffffffffffffffffffffffffffffffffffffffff16815260200190815260200160002081905550816000808573ffffffffffffffffffffffffffffffffffffffff1673ffffffffffffffffffffffffffffffffffffffff16815260200190815260200160002060008282546112c39190611dad565b925050819055508273ffffffffffffffffffffffffffffffffffffffff168473ffffffffffffffffffffffffffffffffffffffff167fddf252ad1be2c89b69c2b068fc378daa952ba7f163c4a11628f55a4df523b3ef846040516113279190611cef565b60405180910390a361133a848484611473565b50505050565b600080826040516020016113549190611b30565b6040516020818303038152906040528051906020012060001c90506007548161137d9190611ecc565b915050919050565b6000600b60003373ffffffffffffffffffffffffffffffffffffffff1673ffffffffffffffffffffffffffffffffffffffff16815260200190815260200160002090508060405180604001604052808581526020018481525090806001815401808255809150506001900390600052602060002090600202016000909190919091506000820151816000019080519060200190611423929190611478565b506020820151816001015550507f8034b65a077ea8f378ca5b81894bbdc30fcd75d877c5d64816a21100034c31c78383604051611461929190611b9f565b60405180910390a1505050565b505050565b505050565b82805461148490611e9a565b90600052602060002090601f0160209004810192826114a657600085556114ed565b82601f106114bf57805160ff19168380011785556114ed565b828001600101855582156114ed579182015b828111156114ec5782518255916020019190600101906114d1565b5b5090506114fa91906114fe565b5090565b5b808211156115175760008160009055506001016114ff565b5090565b600061152e61152984611d56565b611d25565b90508281526020810184848401111561154657600080fd5b611551848285611e58565b509392505050565b60008135905061156881611fca565b92915050565b600082601f83011261157f57600080fd5b813561158f84826020860161151b565b91505092915050565b6000813590506115a781611fe1565b92915050565b6000602082840312156115bf57600080fd5b60006115cd84828501611559565b91505092915050565b600080604083850312156115e957600080fd5b60006115f785828601611559565b925050602061160885828601611559565b9150509250929050565b60008060006060848603121561162757600080fd5b600061163586828701611559565b935050602061164686828701611559565b925050604061165786828701611598565b9150509250925092565b6000806040838503121561167457600080fd5b600061168285828601611559565b925050602061169385828601611598565b9150509250929050565b600080604083850312156116b057600080fd5b600083013567ffffffffffffffff8111156116ca57600080fd5b6116d68582860161156e565b92505060206116e785828601611598565b9150509250929050565b60006020828403121561170357600080fd5b600061171184828501611598565b91505092915050565b61172381611e03565b82525050565b61173281611e15565b82525050565b600061174382611d86565b61174d8185611d91565b935061175d818560208601611e67565b61176681611fb9565b840191505092915050565b600061177c82611d86565b6117868185611da2565b9350611796818560208601611e67565b80840191505092915050565b60006117af602383611d91565b91507f45524332303a207472616e7366657220746f20746865207a65726f206164647260008301527f65737300000000000000000000000000000000000000000000000000000000006020830152604082019050919050565b6000611815602283611d91565b91507f45524332303a20617070726f766520746f20746865207a65726f20616464726560008301527f73730000000000000000000000000000000000000000000000000000000000006020830152604082019050919050565b600061187b601383611d91565b91507f43616c6c6572206973206e6f74206f776e6572000000000000000000000000006000830152602082019050919050565b60006118bb602683611d91565b91507f45524332303a207472616e7366657220616d6f756e742065786365656473206260008301527f616c616e636500000000000000000000000000000000000000000000000000006020830152604082019050919050565b6000611921602183611d91565b91507f596f75206e65656420746f2068617665206174206c656173742031303020434460008301527f54000000000000000000000000000000000000000000000000000000000000006020830152604082019050919050565b6000611987602883611d91565b91507f45524332303a207472616e7366657220616d6f756e742065786365656473206160008301527f6c6c6f77616e63650000000000000000000000000000000000000000000000006020830152604082019050919050565b60006119ed602583611d91565b91507f45524332303a207472616e736665722066726f6d20746865207a65726f20616460008301527f64726573730000000000000000000000000000000000000000000000000000006020830152604082019050919050565b6000611a53602483611d91565b91507f45524332303a20617070726f76652066726f6d20746865207a65726f2061646460008301527f72657373000000000000000000000000000000000000000000000000000000006020830152604082019050919050565b6000611ab9602583611d91565b91507f45524332303a2064656372656173656420616c6c6f77616e63652062656c6f7760008301527f207a65726f0000000000000000000000000000000000000000000000000000006020830152604082019050919050565b611b1b81611e41565b82525050565b611b2a81611e4b565b82525050565b6000611b3c8284611771565b915081905092915050565b6000602082019050611b5c600083018461171a565b92915050565b6000602082019050611b776000830184611729565b92915050565b60006020820190508181036000830152611b978184611738565b905092915050565b60006040820190508181036000830152611bb98185611738565b9050611bc86020830184611b12565b9392505050565b60006020820190508181036000830152611be8816117a2565b9050919050565b60006020820190508181036000830152611c0881611808565b9050919050565b60006020820190508181036000830152611c288161186e565b9050919050565b60006020820190508181036000830152611c48816118ae565b9050919050565b60006020820190508181036000830152611c6881611914565b9050919050565b60006020820190508181036000830152611c888161197a565b9050919050565b60006020820190508181036000830152611ca8816119e0565b9050919050565b60006020820190508181036000830152611cc881611a46565b9050919050565b60006020820190508181036000830152611ce881611aac565b9050919050565b6000602082019050611d046000830184611b12565b92915050565b6000602082019050611d1f6000830184611b21565b92915050565b6000604051905081810181811067ffffffffffffffff82111715611d4c57611d4b611f8a565b5b8060405250919050565b600067ffffffffffffffff821115611d7157611d70611f8a565b5b601f19601f8301169050602081019050919050565b600081519050919050565b600082825260208201905092915050565b600081905092915050565b6000611db882611e41565b9150611dc383611e41565b9250827fffffffffffffffffffffffffffffffffffffffffffffffffffffffffffffffff03821115611df857611df7611efd565b5b828201905092915050565b6000611e0e82611e21565b9050919050565b60008115159050919050565b600073ffffffffffffffffffffffffffffffffffffffff82169050919050565b6000819050919050565b600060ff82169050919050565b82818337600083830152505050565b60005b83811015611e85578082015181840152602081019050611e6a565b83811115611e94576000848401525b50505050565b60006002820490506001821680611eb257607f821691505b60208210811415611ec657611ec5611f5b565b5b50919050565b6000611ed782611e41565b9150611ee283611e41565b925082611ef257611ef1611f2c565b5b828206905092915050565b7f4e487b7100000000000000000000000000000000000000000000000000000000600052601160045260246000fd5b7f4e487b7100000000000000000000000000000000000000000000000000000000600052601260045260246000fd5b7f4e487b7100000000000000000000000000000000000000000000000000000000600052602260045260246000fd5b7f4e487b7100000000000000000000000000000000000000000000000000000000600052604160045260246000fd5b6000601f19601f8301169050919050565b611fd381611e03565b8114611fde57600080fd5b50565b611fea81611e41565b8114611ff557600080fd5b5056fea2646970667358221220f05a940ef348bb7dc60e4dcb1cfb23a50bd92fa344b244df12614f781c78f81764736f6c63430008000033",
  "immutableReferences": {},
  "source": "// SPDX-License-Identifier: GPL-3.0\r\n\r\npragma solidity ^0.8.0;\r\n\r\nimport \"./IZToken.sol\";\r\n\r\ncontract XManFactory is IZToken {\r\n    \r\n    uint256 dnaDigits = 16;\r\n    uint dnaModulus = 10 ** dnaDigits;\r\n    \r\n    uint XMAN_COST = 100;\r\n\r\n    event NewXMan(string name, uint dna);\r\n    event OwnerSet(address indexed oldOwner, address indexed newOwner);\r\n    \r\n    address private owner;\r\n\r\n    struct XMan {\r\n        string name;\r\n        uint dna;\r\n    }\r\n    \r\n    XMan[] public xmen;\r\n    \r\n    mapping (address => XMan[]) public xMenToOwner;\r\n    mapping (address => uint) ownerXManCount;\r\n    \r\n    modifier isOwner(){\r\n        require(msg.sender == owner,\"Caller is not owner\");\r\n        _;\r\n    }\r\n    \r\n    constructor(){\r\n        owner = msg.sender;\r\n        emit OwnerSet(address(0),owner);\r\n    }\r\n\r\n     function changeOwner(address newOwner) public isOwner{\r\n        owner = newOwner;\r\n        emit OwnerSet(owner, newOwner);\r\n    }\r\n\r\n     function getOwner() external view returns (address){\r\n        return owner;\r\n    }\r\n\r\n    function _createXMan(string memory _name, uint _dna) internal {\r\n        XMan[] storage ownerXmen = xMenToOwner[msg.sender];\r\n\r\n        ownerXmen.push(XMan(_name,_dna));\r\n\r\n        emit NewXMan(_name, _dna);\r\n    }\r\n    \r\n\r\n   function getNumberOfXmen() external view returns(uint){\r\n        XMan[] storage ownerXmen = xMenToOwner[msg.sender];\r\n       return ownerXmen.length;\r\n    }\r\n\r\n    function returnXman(uint index) external view returns (string memory, uint){\r\n        XMan[] storage ownerXmen = xMenToOwner[msg.sender];\r\n\r\n        XMan memory xman = ownerXmen[index];\r\n\r\n        return (xman.name, xman.dna);\r\n    }\r\n\r\n    function _generateRandomDna(string memory _str) private view returns (uint) {\r\n        uint rand = uint(keccak256(abi.encodePacked(_str)));\r\n       \r\n        return rand % dnaModulus;\r\n    }\r\n    \r\n    function createRandomXMan(string memory _name, uint amount) public payable{\r\n        //require(ownerXManCount[msg.sender] == 0);\r\n         require(amount >= XMAN_COST, \"You need to have at least 100 CDT\");\r\n         transfer(owner, amount);\r\n        uint randDna = _generateRandomDna(_name);\r\n        _createXMan(_name, randDna);\r\n    }\r\n\r\n    \r\n}",
  "sourcePath": "C:\\coder-token-main\\BlockChainHomeAssigmnet\\coder-token-main\\contracts\\XManFactory.sol",
  "compiler": {
    "name": "solc",
    "version": "0.8.0+commit.c7dfd78e.Emscripten.clang"
  },
  "schemaVersion": "3.4.4",
  "updatedAt": "2022-01-28T12:22:32.384Z",
  "devdoc": {
    "kind": "dev",
    "methods": {
      "allowance(address,address)": {
        "details": "See {IERC20-allowance}."
      },
      "approve(address,uint256)": {
        "details": "See {IERC20-approve}. Requirements: - `spender` cannot be the zero address."
      },
      "balanceOf(address)": {
        "details": "See {IERC20-balanceOf}."
      },
      "decimals()": {
        "details": "Returns the number of decimals used to get its user representation. For example, if `decimals` equals `2`, a balance of `505` tokens should be displayed to a user as `5.05` (`505 / 10 ** 2`). Tokens usually opt for a value of 18, imitating the relationship between Ether and Wei. This is the value {ERC20} uses, unless this function is overridden; NOTE: This information is only used for _display_ purposes: it in no way affects any of the arithmetic of the contract, including {IERC20-balanceOf} and {IERC20-transfer}."
      },
      "decreaseAllowance(address,uint256)": {
        "details": "Atomically decreases the allowance granted to `spender` by the caller. This is an alternative to {approve} that can be used as a mitigation for problems described in {IERC20-approve}. Emits an {Approval} event indicating the updated allowance. Requirements: - `spender` cannot be the zero address. - `spender` must have allowance for the caller of at least `subtractedValue`."
      },
      "increaseAllowance(address,uint256)": {
        "details": "Atomically increases the allowance granted to `spender` by the caller. This is an alternative to {approve} that can be used as a mitigation for problems described in {IERC20-approve}. Emits an {Approval} event indicating the updated allowance. Requirements: - `spender` cannot be the zero address."
      },
      "name()": {
        "details": "Returns the name of the token."
      },
      "symbol()": {
        "details": "Returns the symbol of the token, usually a shorter version of the name."
      },
      "totalSupply()": {
        "details": "See {IERC20-totalSupply}."
      },
      "transfer(address,uint256)": {
        "details": "See {IERC20-transfer}. Requirements: - `recipient` cannot be the zero address. - the caller must have a balance of at least `amount`."
      },
      "transferFrom(address,address,uint256)": {
        "details": "See {IERC20-transferFrom}. Emits an {Approval} event indicating the updated allowance. This is not required by the EIP. See the note at the beginning of {ERC20}. Requirements: - `sender` and `recipient` cannot be the zero address. - `sender` must have a balance of at least `amount`. - the caller must have allowance for ``sender``'s tokens of at least `amount`."
      }
    },
    "version": 1
  },
  "userdoc": {
    "kind": "user",
    "methods": {},
    "version": 1
  }
}